{"contracts/ReentrancyAttacks/Vulnerable.sol":{"ReentrantVulnerable":{"abi":[{"inputs":[{"internalType":"address","name":"","type":"address"}],"name":"balances","outputs":[{"internalType":"uint256","name":"","type":"uint256"}],"stateMutability":"view","type":"function"},{"inputs":[],"name":"deposit","outputs":[],"stateMutability":"payable","type":"function"},{"inputs":[],"name":"getBalance","outputs":[{"internalType":"uint256","name":"","type":"uint256"}],"stateMutability":"view","type":"function"},{"inputs":[],"name":"withdraw","outputs":[],"stateMutability":"payable","type":"function"}],"devdoc":{"kind":"dev","methods":{},"version":1},"evm":{"bytecode":{"linkReferences":{},"object":"608060405234801561001057600080fd5b5061063c806100206000396000f3fe60806040526004361061003f5760003560e01c806312065fe01461004457806327e235e31461006f5780633ccfd60b146100ac578063d0e30db0146100b6575b600080fd5b34801561005057600080fd5b506100596100c0565b6040516100669190610413565b60405180910390f35b34801561007b57600080fd5b5061009660048036038101906100919190610491565b610104565b6040516100a39190610413565b60405180910390f35b6100b461011c565b005b6100be610378565b005b60006100d667a76b71360a05301e60c01b6103f7565b6100ea67e487de733b8a567860c01b6103f7565b6100fe670987496a30a0921360c01b6103f7565b47905090565b60006020528060005260406000206000915090505481565b61013067a9c1ecf5c2f7321c60c01b6103f7565b6101446797b2a1da33abfb9a60c01b6103f7565b610158672d32c5bf37a2e7a560c01b6103f7565b60008060003373ffffffffffffffffffffffffffffffffffffffff1673ffffffffffffffffffffffffffffffffffffffff1681526020019081526020016000205490506101af67156b28cc213a51ca60c01b6103f7565b6101c367bf7bef778f0f410060c01b6103f7565b6101d7673cc76c0bc69e7c6f60c01b6103f7565b600081116101e457600080fd5b6101f867bebb13101530b14b60c01b6103f7565b61020c671f459db9d563540160c01b6103f7565b61022067a293cdd6e797f84d60c01b6103f7565b60003373ffffffffffffffffffffffffffffffffffffffff1682604051610246906104ef565b60006040518083038185875af1925050503d8060008114610283576040519150601f19603f3d011682016040523d82523d6000602084013e610288565b606091505b505090506102a067cd06a6234eb3f4b460c01b6103f7565b6102b46708bbcf8579ffb89b60c01b6103f7565b6102c86705ea95ee1b6b223b60c01b6103f7565b80610308576040517f08c379a00000000000000000000000000000000000000000000000000000000081526004016102ff90610561565b60405180910390fd5b61031c674763e085f43a144360c01b6103f7565b61033067ed0ce2da4e1d67e460c01b6103f7565b60008060003373ffffffffffffffffffffffffffffffffffffffff1673ffffffffffffffffffffffffffffffffffffffff168152602001908152602001600020819055505050565b61038c67f632ec022ef9e58460c01b6103f7565b6103a06792bae3164080983960c01b6103f7565b346000803373ffffffffffffffffffffffffffffffffffffffff1673ffffffffffffffffffffffffffffffffffffffff16815260200190815260200160002060008282546103ee91906105b0565b92505081905550565b50565b6000819050919050565b61040d816103fa565b82525050565b60006020820190506104286000830184610404565b92915050565b600080fd5b600073ffffffffffffffffffffffffffffffffffffffff82169050919050565b600061045e82610433565b9050919050565b61046e81610453565b811461047957600080fd5b50565b60008135905061048b81610465565b92915050565b6000602082840312156104a7576104a661042e565b5b60006104b58482850161047c565b91505092915050565b600081905092915050565b50565b60006104d96000836104be565b91506104e4826104c9565b600082019050919050565b60006104fa826104cc565b9150819050919050565b600082825260208201905092915050565b7f4661696c656420746f2073656e64204574686572000000000000000000000000600082015250565b600061054b601483610504565b915061055682610515565b602082019050919050565b6000602082019050818103600083015261057a8161053e565b9050919050565b7f4e487b7100000000000000000000000000000000000000000000000000000000600052601160045260246000fd5b60006105bb826103fa565b91506105c6836103fa565b9250827fffffffffffffffffffffffffffffffffffffffffffffffffffffffffffffffff038211156105fb576105fa610581565b5b82820190509291505056fea26469706673582212205c1ea4945ff71e1ea0f71903c8c200ffecbde33df8b77ce52a91fb0d1cc86dd664736f6c63430008090033","opcodes":"PUSH1 0x80 PUSH1 0x40 MSTORE CALLVALUE DUP1 ISZERO PUSH2 0x10 JUMPI PUSH1 0x0 DUP1 REVERT JUMPDEST POP PUSH2 0x63C DUP1 PUSH2 0x20 PUSH1 0x0 CODECOPY PUSH1 0x0 RETURN INVALID PUSH1 0x80 PUSH1 0x40 MSTORE PUSH1 0x4 CALLDATASIZE LT PUSH2 0x3F JUMPI PUSH1 0x0 CALLDATALOAD PUSH1 0xE0 SHR DUP1 PUSH4 0x12065FE0 EQ PUSH2 0x44 JUMPI DUP1 PUSH4 0x27E235E3 EQ PUSH2 0x6F JUMPI DUP1 PUSH4 0x3CCFD60B EQ PUSH2 0xAC JUMPI DUP1 PUSH4 0xD0E30DB0 EQ PUSH2 0xB6 JUMPI JUMPDEST PUSH1 0x0 DUP1 REVERT JUMPDEST CALLVALUE DUP1 ISZERO PUSH2 0x50 JUMPI PUSH1 0x0 DUP1 REVERT JUMPDEST POP PUSH2 0x59 PUSH2 0xC0 JUMP JUMPDEST PUSH1 0x40 MLOAD PUSH2 0x66 SWAP2 SWAP1 PUSH2 0x413 JUMP JUMPDEST PUSH1 0x40 MLOAD DUP1 SWAP2 SUB SWAP1 RETURN JUMPDEST CALLVALUE DUP1 ISZERO PUSH2 0x7B JUMPI PUSH1 0x0 DUP1 REVERT JUMPDEST POP PUSH2 0x96 PUSH1 0x4 DUP1 CALLDATASIZE SUB DUP2 ADD SWAP1 PUSH2 0x91 SWAP2 SWAP1 PUSH2 0x491 JUMP JUMPDEST PUSH2 0x104 JUMP JUMPDEST PUSH1 0x40 MLOAD PUSH2 0xA3 SWAP2 SWAP1 PUSH2 0x413 JUMP JUMPDEST PUSH1 0x40 MLOAD DUP1 SWAP2 SUB SWAP1 RETURN JUMPDEST PUSH2 0xB4 PUSH2 0x11C JUMP JUMPDEST STOP JUMPDEST PUSH2 0xBE PUSH2 0x378 JUMP JUMPDEST STOP JUMPDEST PUSH1 0x0 PUSH2 0xD6 PUSH8 0xA76B71360A05301E PUSH1 0xC0 SHL PUSH2 0x3F7 JUMP JUMPDEST PUSH2 0xEA PUSH8 0xE487DE733B8A5678 PUSH1 0xC0 SHL PUSH2 0x3F7 JUMP JUMPDEST PUSH2 0xFE PUSH8 0x987496A30A09213 PUSH1 0xC0 SHL PUSH2 0x3F7 JUMP JUMPDEST SELFBALANCE SWAP1 POP SWAP1 JUMP JUMPDEST PUSH1 0x0 PUSH1 0x20 MSTORE DUP1 PUSH1 0x0 MSTORE PUSH1 0x40 PUSH1 0x0 KECCAK256 PUSH1 0x0 SWAP2 POP SWAP1 POP SLOAD DUP2 JUMP JUMPDEST PUSH2 0x130 PUSH8 0xA9C1ECF5C2F7321C PUSH1 0xC0 SHL PUSH2 0x3F7 JUMP JUMPDEST PUSH2 0x144 PUSH8 0x97B2A1DA33ABFB9A PUSH1 0xC0 SHL PUSH2 0x3F7 JUMP JUMPDEST PUSH2 0x158 PUSH8 0x2D32C5BF37A2E7A5 PUSH1 0xC0 SHL PUSH2 0x3F7 JUMP JUMPDEST PUSH1 0x0 DUP1 PUSH1 0x0 CALLER PUSH20 0xFFFFFFFFFFFFFFFFFFFFFFFFFFFFFFFFFFFFFFFF AND PUSH20 0xFFFFFFFFFFFFFFFFFFFFFFFFFFFFFFFFFFFFFFFF AND DUP2 MSTORE PUSH1 0x20 ADD SWAP1 DUP2 MSTORE PUSH1 0x20 ADD PUSH1 0x0 KECCAK256 SLOAD SWAP1 POP PUSH2 0x1AF PUSH8 0x156B28CC213A51CA PUSH1 0xC0 SHL PUSH2 0x3F7 JUMP JUMPDEST PUSH2 0x1C3 PUSH8 0xBF7BEF778F0F4100 PUSH1 0xC0 SHL PUSH2 0x3F7 JUMP JUMPDEST PUSH2 0x1D7 PUSH8 0x3CC76C0BC69E7C6F PUSH1 0xC0 SHL PUSH2 0x3F7 JUMP JUMPDEST PUSH1 0x0 DUP2 GT PUSH2 0x1E4 JUMPI PUSH1 0x0 DUP1 REVERT JUMPDEST PUSH2 0x1F8 PUSH8 0xBEBB13101530B14B PUSH1 0xC0 SHL PUSH2 0x3F7 JUMP JUMPDEST PUSH2 0x20C PUSH8 0x1F459DB9D5635401 PUSH1 0xC0 SHL PUSH2 0x3F7 JUMP JUMPDEST PUSH2 0x220 PUSH8 0xA293CDD6E797F84D PUSH1 0xC0 SHL PUSH2 0x3F7 JUMP JUMPDEST PUSH1 0x0 CALLER PUSH20 0xFFFFFFFFFFFFFFFFFFFFFFFFFFFFFFFFFFFFFFFF AND DUP3 PUSH1 0x40 MLOAD PUSH2 0x246 SWAP1 PUSH2 0x4EF JUMP JUMPDEST PUSH1 0x0 PUSH1 0x40 MLOAD DUP1 DUP4 SUB DUP2 DUP6 DUP8 GAS CALL SWAP3 POP POP POP RETURNDATASIZE DUP1 PUSH1 0x0 DUP2 EQ PUSH2 0x283 JUMPI PUSH1 0x40 MLOAD SWAP2 POP PUSH1 0x1F NOT PUSH1 0x3F RETURNDATASIZE ADD AND DUP3 ADD PUSH1 0x40 MSTORE RETURNDATASIZE DUP3 MSTORE RETURNDATASIZE PUSH1 0x0 PUSH1 0x20 DUP5 ADD RETURNDATACOPY PUSH2 0x288 JUMP JUMPDEST PUSH1 0x60 SWAP2 POP JUMPDEST POP POP SWAP1 POP PUSH2 0x2A0 PUSH8 0xCD06A6234EB3F4B4 PUSH1 0xC0 SHL PUSH2 0x3F7 JUMP JUMPDEST PUSH2 0x2B4 PUSH8 0x8BBCF8579FFB89B PUSH1 0xC0 SHL PUSH2 0x3F7 JUMP JUMPDEST PUSH2 0x2C8 PUSH8 0x5EA95EE1B6B223B PUSH1 0xC0 SHL PUSH2 0x3F7 JUMP JUMPDEST DUP1 PUSH2 0x308 JUMPI PUSH1 0x40 MLOAD PUSH32 0x8C379A000000000000000000000000000000000000000000000000000000000 DUP2 MSTORE PUSH1 0x4 ADD PUSH2 0x2FF SWAP1 PUSH2 0x561 JUMP JUMPDEST PUSH1 0x40 MLOAD DUP1 SWAP2 SUB SWAP1 REVERT JUMPDEST PUSH2 0x31C PUSH8 0x4763E085F43A1443 PUSH1 0xC0 SHL PUSH2 0x3F7 JUMP JUMPDEST PUSH2 0x330 PUSH8 0xED0CE2DA4E1D67E4 PUSH1 0xC0 SHL PUSH2 0x3F7 JUMP JUMPDEST PUSH1 0x0 DUP1 PUSH1 0x0 CALLER PUSH20 0xFFFFFFFFFFFFFFFFFFFFFFFFFFFFFFFFFFFFFFFF AND PUSH20 0xFFFFFFFFFFFFFFFFFFFFFFFFFFFFFFFFFFFFFFFF AND DUP2 MSTORE PUSH1 0x20 ADD SWAP1 DUP2 MSTORE PUSH1 0x20 ADD PUSH1 0x0 KECCAK256 DUP2 SWAP1 SSTORE POP POP POP JUMP JUMPDEST PUSH2 0x38C PUSH8 0xF632EC022EF9E584 PUSH1 0xC0 SHL PUSH2 0x3F7 JUMP JUMPDEST PUSH2 0x3A0 PUSH8 0x92BAE31640809839 PUSH1 0xC0 SHL PUSH2 0x3F7 JUMP JUMPDEST CALLVALUE PUSH1 0x0 DUP1 CALLER PUSH20 0xFFFFFFFFFFFFFFFFFFFFFFFFFFFFFFFFFFFFFFFF AND PUSH20 0xFFFFFFFFFFFFFFFFFFFFFFFFFFFFFFFFFFFFFFFF AND DUP2 MSTORE PUSH1 0x20 ADD SWAP1 DUP2 MSTORE PUSH1 0x20 ADD PUSH1 0x0 KECCAK256 PUSH1 0x0 DUP3 DUP3 SLOAD PUSH2 0x3EE SWAP2 SWAP1 PUSH2 0x5B0 JUMP JUMPDEST SWAP3 POP POP DUP2 SWAP1 SSTORE POP JUMP JUMPDEST POP JUMP JUMPDEST PUSH1 0x0 DUP2 SWAP1 POP SWAP2 SWAP1 POP JUMP JUMPDEST PUSH2 0x40D DUP2 PUSH2 0x3FA JUMP JUMPDEST DUP3 MSTORE POP POP JUMP JUMPDEST PUSH1 0x0 PUSH1 0x20 DUP3 ADD SWAP1 POP PUSH2 0x428 PUSH1 0x0 DUP4 ADD DUP5 PUSH2 0x404 JUMP JUMPDEST SWAP3 SWAP2 POP POP JUMP JUMPDEST PUSH1 0x0 DUP1 REVERT JUMPDEST PUSH1 0x0 PUSH20 0xFFFFFFFFFFFFFFFFFFFFFFFFFFFFFFFFFFFFFFFF DUP3 AND SWAP1 POP SWAP2 SWAP1 POP JUMP JUMPDEST PUSH1 0x0 PUSH2 0x45E DUP3 PUSH2 0x433 JUMP JUMPDEST SWAP1 POP SWAP2 SWAP1 POP JUMP JUMPDEST PUSH2 0x46E DUP2 PUSH2 0x453 JUMP JUMPDEST DUP2 EQ PUSH2 0x479 JUMPI PUSH1 0x0 DUP1 REVERT JUMPDEST POP JUMP JUMPDEST PUSH1 0x0 DUP2 CALLDATALOAD SWAP1 POP PUSH2 0x48B DUP2 PUSH2 0x465 JUMP JUMPDEST SWAP3 SWAP2 POP POP JUMP JUMPDEST PUSH1 0x0 PUSH1 0x20 DUP3 DUP5 SUB SLT ISZERO PUSH2 0x4A7 JUMPI PUSH2 0x4A6 PUSH2 0x42E JUMP JUMPDEST JUMPDEST PUSH1 0x0 PUSH2 0x4B5 DUP5 DUP3 DUP6 ADD PUSH2 0x47C JUMP JUMPDEST SWAP2 POP POP SWAP3 SWAP2 POP POP JUMP JUMPDEST PUSH1 0x0 DUP2 SWAP1 POP SWAP3 SWAP2 POP POP JUMP JUMPDEST POP JUMP JUMPDEST PUSH1 0x0 PUSH2 0x4D9 PUSH1 0x0 DUP4 PUSH2 0x4BE JUMP JUMPDEST SWAP2 POP PUSH2 0x4E4 DUP3 PUSH2 0x4C9 JUMP JUMPDEST PUSH1 0x0 DUP3 ADD SWAP1 POP SWAP2 SWAP1 POP JUMP JUMPDEST PUSH1 0x0 PUSH2 0x4FA DUP3 PUSH2 0x4CC JUMP JUMPDEST SWAP2 POP DUP2 SWAP1 POP SWAP2 SWAP1 POP JUMP JUMPDEST PUSH1 0x0 DUP3 DUP3 MSTORE PUSH1 0x20 DUP3 ADD SWAP1 POP SWAP3 SWAP2 POP POP JUMP JUMPDEST PUSH32 0x4661696C656420746F2073656E64204574686572000000000000000000000000 PUSH1 0x0 DUP3 ADD MSTORE POP JUMP JUMPDEST PUSH1 0x0 PUSH2 0x54B PUSH1 0x14 DUP4 PUSH2 0x504 JUMP JUMPDEST SWAP2 POP PUSH2 0x556 DUP3 PUSH2 0x515 JUMP JUMPDEST PUSH1 0x20 DUP3 ADD SWAP1 POP SWAP2 SWAP1 POP JUMP JUMPDEST PUSH1 0x0 PUSH1 0x20 DUP3 ADD SWAP1 POP DUP2 DUP2 SUB PUSH1 0x0 DUP4 ADD MSTORE PUSH2 0x57A DUP2 PUSH2 0x53E JUMP JUMPDEST SWAP1 POP SWAP2 SWAP1 POP JUMP JUMPDEST PUSH32 0x4E487B7100000000000000000000000000000000000000000000000000000000 PUSH1 0x0 MSTORE PUSH1 0x11 PUSH1 0x4 MSTORE PUSH1 0x24 PUSH1 0x0 REVERT JUMPDEST PUSH1 0x0 PUSH2 0x5BB DUP3 PUSH2 0x3FA JUMP JUMPDEST SWAP2 POP PUSH2 0x5C6 DUP4 PUSH2 0x3FA JUMP JUMPDEST SWAP3 POP DUP3 PUSH32 0xFFFFFFFFFFFFFFFFFFFFFFFFFFFFFFFFFFFFFFFFFFFFFFFFFFFFFFFFFFFFFFFF SUB DUP3 GT ISZERO PUSH2 0x5FB JUMPI PUSH2 0x5FA PUSH2 0x581 JUMP JUMPDEST JUMPDEST DUP3 DUP3 ADD SWAP1 POP SWAP3 SWAP2 POP POP JUMP INVALID LOG2 PUSH5 0x6970667358 0x22 SLT KECCAK256 0x5C 0x1E LOG4 SWAP5 0x5F 0xF7 0x1E 0x1E LOG0 0xF7 NOT SUB 0xC8 0xC2 STOP SELFDESTRUCT 0xEC 0xBD 0xE3 RETURNDATASIZE 0xF8 0xB7 PUSH29 0xE52A91FB0D1CC86DD664736F6C63430008090033000000000000000000 "},"gasEstimates":{"creation":{"codeDepositCost":"319200","executionCost":"355","totalCost":"319555"},"external":{"balances(address)":"2814","deposit()":"infinite","getBalance()":"infinite","withdraw()":"infinite"},"internal":{"c_a5fe6390(bytes8)":"11","c_falsea5fe6390(bytes8)":"infinite","c_truea5fe6390(bytes8)":"infinite"}},"methodIdentifiers":{"balances(address)":"27e235e3","deposit()":"d0e30db0","getBalance()":"12065fe0","withdraw()":"3ccfd60b"}},"storageLayout":{"storage":[{"astId":2985,"contract":"contracts/ReentrancyAttacks/Vulnerable.sol:ReentrantVulnerable","label":"balances","offset":0,"slot":"0","type":"t_mapping(t_address,t_uint256)"}],"types":{"t_address":{"encoding":"inplace","label":"address","numberOfBytes":"20"},"t_mapping(t_address,t_uint256)":{"encoding":"mapping","key":"t_address","label":"mapping(address => uint256)","numberOfBytes":"32","value":"t_uint256"},"t_uint256":{"encoding":"inplace","label":"uint256","numberOfBytes":"32"}}},"userdoc":{"kind":"user","methods":{},"version":1}}}}