{
  "_format": "hh-sol-artifact-1",
  "contractName": "ReentrantVulnerable",
  "sourceName": "contracts/ReentrancyAttacks/Vulnerable.sol",
  "abi": [
    {
      "inputs": [
        {
          "internalType": "address",
          "name": "",
          "type": "address"
        }
      ],
      "name": "balances",
      "outputs": [
        {
          "internalType": "uint256",
          "name": "",
          "type": "uint256"
        }
      ],
      "stateMutability": "view",
      "type": "function"
    },
    {
      "inputs": [],
      "name": "deposit",
      "outputs": [],
      "stateMutability": "payable",
      "type": "function"
    },
    {
      "inputs": [],
      "name": "getBalance",
      "outputs": [
        {
          "internalType": "uint256",
          "name": "",
          "type": "uint256"
        }
      ],
      "stateMutability": "view",
      "type": "function"
    },
    {
      "inputs": [],
      "name": "withdraw",
      "outputs": [],
      "stateMutability": "payable",
      "type": "function"
    }
  ],
  "bytecode": "0x608060405234801561001057600080fd5b5061063c806100206000396000f3fe60806040526004361061003f5760003560e01c806312065fe01461004457806327e235e31461006f5780633ccfd60b146100ac578063d0e30db0146100b6575b600080fd5b34801561005057600080fd5b506100596100c0565b6040516100669190610413565b60405180910390f35b34801561007b57600080fd5b5061009660048036038101906100919190610491565b610104565b6040516100a39190610413565b60405180910390f35b6100b461011c565b005b6100be610378565b005b60006100d667a76b71360a05301e60c01b6103f7565b6100ea67e487de733b8a567860c01b6103f7565b6100fe670987496a30a0921360c01b6103f7565b47905090565b60006020528060005260406000206000915090505481565b61013067a9c1ecf5c2f7321c60c01b6103f7565b6101446797b2a1da33abfb9a60c01b6103f7565b610158672d32c5bf37a2e7a560c01b6103f7565b60008060003373ffffffffffffffffffffffffffffffffffffffff1673ffffffffffffffffffffffffffffffffffffffff1681526020019081526020016000205490506101af67156b28cc213a51ca60c01b6103f7565b6101c367bf7bef778f0f410060c01b6103f7565b6101d7673cc76c0bc69e7c6f60c01b6103f7565b600081116101e457600080fd5b6101f867bebb13101530b14b60c01b6103f7565b61020c671f459db9d563540160c01b6103f7565b61022067a293cdd6e797f84d60c01b6103f7565b60003373ffffffffffffffffffffffffffffffffffffffff1682604051610246906104ef565b60006040518083038185875af1925050503d8060008114610283576040519150601f19603f3d011682016040523d82523d6000602084013e610288565b606091505b505090506102a067cd06a6234eb3f4b460c01b6103f7565b6102b46708bbcf8579ffb89b60c01b6103f7565b6102c86705ea95ee1b6b223b60c01b6103f7565b80610308576040517f08c379a00000000000000000000000000000000000000000000000000000000081526004016102ff90610561565b60405180910390fd5b61031c674763e085f43a144360c01b6103f7565b61033067ed0ce2da4e1d67e460c01b6103f7565b60008060003373ffffffffffffffffffffffffffffffffffffffff1673ffffffffffffffffffffffffffffffffffffffff168152602001908152602001600020819055505050565b61038c67f632ec022ef9e58460c01b6103f7565b6103a06792bae3164080983960c01b6103f7565b346000803373ffffffffffffffffffffffffffffffffffffffff1673ffffffffffffffffffffffffffffffffffffffff16815260200190815260200160002060008282546103ee91906105b0565b92505081905550565b50565b6000819050919050565b61040d816103fa565b82525050565b60006020820190506104286000830184610404565b92915050565b600080fd5b600073ffffffffffffffffffffffffffffffffffffffff82169050919050565b600061045e82610433565b9050919050565b61046e81610453565b811461047957600080fd5b50565b60008135905061048b81610465565b92915050565b6000602082840312156104a7576104a661042e565b5b60006104b58482850161047c565b91505092915050565b600081905092915050565b50565b60006104d96000836104be565b91506104e4826104c9565b600082019050919050565b60006104fa826104cc565b9150819050919050565b600082825260208201905092915050565b7f4661696c656420746f2073656e64204574686572000000000000000000000000600082015250565b600061054b601483610504565b915061055682610515565b602082019050919050565b6000602082019050818103600083015261057a8161053e565b9050919050565b7f4e487b7100000000000000000000000000000000000000000000000000000000600052601160045260246000fd5b60006105bb826103fa565b91506105c6836103fa565b9250827fffffffffffffffffffffffffffffffffffffffffffffffffffffffffffffffff038211156105fb576105fa610581565b5b82820190509291505056fea26469706673582212205c1ea4945ff71e1ea0f71903c8c200ffecbde33df8b77ce52a91fb0d1cc86dd664736f6c63430008090033",
  "linkReferences": {},
  "deployedLinkReferences": {}
}