{
  "_format": "hh-sol-artifact-1",
  "contractName": "NftMarketplace",
  "sourceName": "contracts/NftMarketplace.sol",
  "abi": [
    {
      "inputs": [],
      "name": "NftMarketplace_TransferFailed",
      "type": "error"
    },
    {
      "inputs": [
        {
          "internalType": "address",
          "name": "nftAddress",
          "type": "address"
        },
        {
          "internalType": "uint256",
          "name": "tokenId",
          "type": "uint256"
        }
      ],
      "name": "NftMarketplace__AlreadyListed",
      "type": "error"
    },
    {
      "inputs": [],
      "name": "NftMarketplace__NoProceeds",
      "type": "error"
    },
    {
      "inputs": [
        {
          "internalType": "address",
          "name": "nftAddress",
          "type": "address"
        },
        {
          "internalType": "uint256",
          "name": "tokenId",
          "type": "uint256"
        }
      ],
      "name": "NftMarketplace__NotListed",
      "type": "error"
    },
    {
      "inputs": [],
      "name": "NftMarketplace__NotOwner",
      "type": "error"
    },
    {
      "inputs": [],
      "name": "NftMarketplace__NotaprovedMPtosell",
      "type": "error"
    },
    {
      "inputs": [
        {
          "internalType": "address",
          "name": "nftAddress",
          "type": "address"
        },
        {
          "internalType": "uint256",
          "name": "tokenId",
          "type": "uint256"
        },
        {
          "internalType": "uint256",
          "name": "price",
          "type": "uint256"
        }
      ],
      "name": "NftMarketplace__PriceNotMet",
      "type": "error"
    },
    {
      "inputs": [],
      "name": "NftMarketplace__Pricemustbegreaterthanzero",
      "type": "error"
    },
    {
      "anonymous": false,
      "inputs": [
        {
          "indexed": true,
          "internalType": "address",
          "name": "buyer",
          "type": "address"
        },
        {
          "indexed": true,
          "internalType": "address",
          "name": "nftAddress",
          "type": "address"
        },
        {
          "indexed": true,
          "internalType": "uint256",
          "name": "tokenId",
          "type": "uint256"
        },
        {
          "indexed": false,
          "internalType": "uint256",
          "name": "price",
          "type": "uint256"
        }
      ],
      "name": "ItemBought",
      "type": "event"
    },
    {
      "anonymous": false,
      "inputs": [
        {
          "indexed": true,
          "internalType": "address",
          "name": "owner",
          "type": "address"
        },
        {
          "indexed": true,
          "internalType": "address",
          "name": "nftAddress",
          "type": "address"
        },
        {
          "indexed": true,
          "internalType": "uint256",
          "name": "tokenId",
          "type": "uint256"
        }
      ],
      "name": "ItemCanceled",
      "type": "event"
    },
    {
      "anonymous": false,
      "inputs": [
        {
          "indexed": true,
          "internalType": "address",
          "name": "seller",
          "type": "address"
        },
        {
          "indexed": true,
          "internalType": "address",
          "name": "nftAddress",
          "type": "address"
        },
        {
          "indexed": true,
          "internalType": "uint256",
          "name": "tokenId",
          "type": "uint256"
        },
        {
          "indexed": false,
          "internalType": "uint256",
          "name": "price",
          "type": "uint256"
        }
      ],
      "name": "ItemListed",
      "type": "event"
    },
    {
      "inputs": [
        {
          "internalType": "address",
          "name": "nftAddress",
          "type": "address"
        },
        {
          "internalType": "uint256",
          "name": "tokenId",
          "type": "uint256"
        }
      ],
      "name": "buyItem",
      "outputs": [],
      "stateMutability": "payable",
      "type": "function"
    },
    {
      "inputs": [
        {
          "internalType": "address",
          "name": "nftAddress",
          "type": "address"
        },
        {
          "internalType": "uint256",
          "name": "tokenId",
          "type": "uint256"
        }
      ],
      "name": "cancelListing",
      "outputs": [],
      "stateMutability": "nonpayable",
      "type": "function"
    },
    {
      "inputs": [
        {
          "internalType": "address",
          "name": "nftAddress",
          "type": "address"
        },
        {
          "internalType": "uint256",
          "name": "tokenId",
          "type": "uint256"
        }
      ],
      "name": "getListings",
      "outputs": [
        {
          "components": [
            {
              "internalType": "uint256",
              "name": "price",
              "type": "uint256"
            },
            {
              "internalType": "address",
              "name": "seller",
              "type": "address"
            }
          ],
          "internalType": "struct NftMarketplace.Listing",
          "name": "",
          "type": "tuple"
        }
      ],
      "stateMutability": "view",
      "type": "function"
    },
    {
      "inputs": [
        {
          "internalType": "address",
          "name": "seller",
          "type": "address"
        }
      ],
      "name": "getProceeds",
      "outputs": [
        {
          "internalType": "uint256",
          "name": "",
          "type": "uint256"
        }
      ],
      "stateMutability": "view",
      "type": "function"
    },
    {
      "inputs": [
        {
          "internalType": "address",
          "name": "nftAddress",
          "type": "address"
        },
        {
          "internalType": "uint256",
          "name": "tokenId",
          "type": "uint256"
        },
        {
          "internalType": "uint256",
          "name": "price",
          "type": "uint256"
        }
      ],
      "name": "listItem",
      "outputs": [],
      "stateMutability": "nonpayable",
      "type": "function"
    },
    {
      "inputs": [
        {
          "internalType": "address",
          "name": "nftAddress",
          "type": "address"
        },
        {
          "internalType": "uint256",
          "name": "tokenId",
          "type": "uint256"
        },
        {
          "internalType": "uint256",
          "name": "newPrice",
          "type": "uint256"
        }
      ],
      "name": "updateListing",
      "outputs": [],
      "stateMutability": "nonpayable",
      "type": "function"
    },
    {
      "inputs": [],
      "name": "withdrawPayment",
      "outputs": [],
      "stateMutability": "nonpayable",
      "type": "function"
    }
  ],
  "bytecode": "0x608060405234801561001057600080fd5b506001600081905550612404806100286000396000f3fe6080604052600436106100705760003560e01c8063a118babd1161004e578063a118babd146100f7578063b2ddee061461010e578063e3278e7914610137578063f772adf11461017457610070565b806330cfeda91461007557806389bfd38f146100b25780639f37092a146100db575b600080fd5b34801561008157600080fd5b5061009c60048036038101906100979190611faa565b61019d565b6040516100a99190611ff0565b60405180910390f35b3480156100be57600080fd5b506100d960048036038101906100d49190612037565b610222565b005b6100f560048036038101906100f0919061208a565b6109ba565b005b34801561010357600080fd5b5061010c611143565b005b34801561011a57600080fd5b506101356004803603810190610130919061208a565b6113ed565b005b34801561014357600080fd5b5061015e6004803603810190610159919061208a565b61190c565b60405161016b9190612117565b60405180910390f35b34801561018057600080fd5b5061019b60048036038101906101969190612037565b611a13565b005b60006101b367d7e60d6e9805a09560c01b611f14565b6101c7674d371809255ad0e860c01b611f14565b6101db6746ac7e1e8654a97c60c01b611f14565b600260008373ffffffffffffffffffffffffffffffffffffffff1673ffffffffffffffffffffffffffffffffffffffff168152602001908152602001600020549050919050565b6102366780443cdcce5abdee60c01b611f14565b82823361024d675d5f162d6b606b7460c01b611f14565b610261673af12e460a240d5360c01b611f14565b61027567505e204b90ed628260c01b611f14565b6000600160008573ffffffffffffffffffffffffffffffffffffffff1673ffffffffffffffffffffffffffffffffffffffff1681526020019081526020016000206000848152602001908152602001600020604051806040016040529081600082015481526020016001820160009054906101000a900473ffffffffffffffffffffffffffffffffffffffff1673ffffffffffffffffffffffffffffffffffffffff1673ffffffffffffffffffffffffffffffffffffffff168152505090506103486758816f661543f1c160c01b611f14565b61035c674a58163baad4ddf360c01b611f14565b6000816000015111156103d05761037d678735aa16dc10689160c01b611f14565b6103916764f273fe7b5a028f60c01b611f14565b83836040517fc2f0d7090000000000000000000000000000000000000000000000000000000081526004016103c7929190612141565b60405180910390fd5b6103e46740eb404c4416293460c01b611f14565b6103f86771e674da8ec749e260c01b611f14565b61040c674efb5ebadb1d3f1160c01b611f14565b61042067f794a6bfb881573160c01b611f14565b8686336104376767c57a433d0a7ef160c01b611f14565b61044b6727b6d734d9f887d160c01b611f14565b61045f671f2f1f553765429260c01b611f14565b600083905061047867baa16bd8461aff3e60c01b611f14565b61048c6774d5149f9643567360c01b611f14565b60008173ffffffffffffffffffffffffffffffffffffffff16636352211e856040518263ffffffff1660e01b81526004016104c79190611ff0565b60206040518083038186803b1580156104df57600080fd5b505afa1580156104f3573d6000803e3d6000fd5b505050506040513d601f19601f82011682018060405250810190610517919061217f565b905061052d6791d42c779d29fe5060c01b611f14565b61054167495a3f974c83d3e060c01b611f14565b8073ffffffffffffffffffffffffffffffffffffffff168373ffffffffffffffffffffffffffffffffffffffff16146105ce5761058867b6684e6a5410218c60c01b611f14565b61059c67a062345c8d51969560c01b611f14565b6040517f94953b6000000000000000000000000000000000000000000000000000000000815260040160405180910390fd5b6105e267baebf3fa5ff61b4260c01b611f14565b6105f667f92f711c98203d8860c01b611f14565b61060a6774155552be88a83660c01b611f14565b61061e67d9dc65f77e4846de60c01b611f14565b61063267c341697dbe6ba37660c01b611f14565b61064667b95c604638a2467060c01b611f14565b60008a116106a857610662679c94436b17606cc160c01b611f14565b6106766777b955ffd345c89960c01b611f14565b6040517fe343b1e200000000000000000000000000000000000000000000000000000000815260040160405180910390fd5b6106bc678b9d915b1d3db84b60c01b611f14565b6106d0676792f7e2df0b71ed60c01b611f14565b6106e46743072ce3b493214b60c01b611f14565b60008c90506106fd676f7d66bdde1ba38960c01b611f14565b61071167907b6a0c29df7b2c60c01b611f14565b3073ffffffffffffffffffffffffffffffffffffffff168173ffffffffffffffffffffffffffffffffffffffff1663081812fc8e6040518263ffffffff1660e01b81526004016107619190611ff0565b60206040518083038186803b15801561077957600080fd5b505afa15801561078d573d6000803e3d6000fd5b505050506040513d601f19601f820116820180604052508101906107b1919061217f565b73ffffffffffffffffffffffffffffffffffffffff1614610826576107e06774533af375d692a260c01b611f14565b6107f46734737b3bf86a941960c01b611f14565b6040517fc4b976ed00000000000000000000000000000000000000000000000000000000815260040160405180910390fd5b61083a67ed216d9a04d55ff360c01b611f14565b61084e671ecfc056c6edf83060c01b611f14565b60405180604001604052808c81526020013373ffffffffffffffffffffffffffffffffffffffff16815250600160008f73ffffffffffffffffffffffffffffffffffffffff1673ffffffffffffffffffffffffffffffffffffffff16815260200190815260200160002060008e81526020019081526020016000206000820151816000015560208201518160010160006101000a81548173ffffffffffffffffffffffffffffffffffffffff021916908373ffffffffffffffffffffffffffffffffffffffff1602179055509050506109316758da3935d8d66f4a60c01b611f14565b61094567a88cb38fe7e8349860c01b611f14565b8b8d73ffffffffffffffffffffffffffffffffffffffff163373ffffffffffffffffffffffffffffffffffffffff167fd547e933094f12a9159076970143ebe73234e64480317844b0dcb36117116de48e6040516109a39190611ff0565b60405180910390a450505050505050505050505050565b6109ce676395cbbad6baf16060c01b611f14565b60026000541415610a14576040517f08c379a0000000000000000000000000000000000000000000000000000000008152600401610a0b90612209565b60405180910390fd5b6002600081905550610a30673e449adc7e25622460c01b611f14565b610a4467a267478baa49077560c01b611f14565b8181610a5a67f9a20fe267d9788560c01b611f14565b610a6e6795fcef59197fb8d260c01b611f14565b610a82678342e2fc411456d360c01b611f14565b6000600160008473ffffffffffffffffffffffffffffffffffffffff1673ffffffffffffffffffffffffffffffffffffffff1681526020019081526020016000206000838152602001908152602001600020604051806040016040529081600082015481526020016001820160009054906101000a900473ffffffffffffffffffffffffffffffffffffffff1673ffffffffffffffffffffffffffffffffffffffff1673ffffffffffffffffffffffffffffffffffffffff16815250509050610b556758ef11cf0a4d030860c01b611f14565b610b6967e25831444596140160c01b611f14565b6000816000015111610bdc57610b896748cf20f8035056d460c01b611f14565b610b9d67e93e6e2ed6b243f660c01b611f14565b82826040517f6d350f22000000000000000000000000000000000000000000000000000000008152600401610bd3929190612141565b60405180910390fd5b610bf0673f227f6c6bcec2f260c01b611f14565b610c04671bddb227ce60d3ea60c01b611f14565b610c1867e094af368c8731d560c01b611f14565b610c2c677d93d3c654c7d37e60c01b611f14565b610c40670ad9d53e128b00c960c01b611f14565b610c5467a8d0f79be2df633860c01b611f14565b6000600160008773ffffffffffffffffffffffffffffffffffffffff1673ffffffffffffffffffffffffffffffffffffffff1681526020019081526020016000206000868152602001908152602001600020604051806040016040529081600082015481526020016001820160009054906101000a900473ffffffffffffffffffffffffffffffffffffffff1673ffffffffffffffffffffffffffffffffffffffff1673ffffffffffffffffffffffffffffffffffffffff16815250509050610d2767cc9fda2903403ec960c01b611f14565b610d3b674d7fa0d62ab5487760c01b611f14565b610d4f67eda1d4824cfcb7d560c01b611f14565b600360009054906101000a900460ff1615610d9f576040517f08c379a0000000000000000000000000000000000000000000000000000000008152600401610d9690612275565b60405180910390fd5b610db3670191fb5c2136619e60c01b611f14565b610dc767b8863af0cf38f64660c01b611f14565b6001600360006101000a81548160ff021916908315150217905550610df667821b9576a09145d860c01b611f14565b610e0a678d544f2c9171872760c01b611f14565b8060000151341015610e8357610e2a678ab27a674c2157e460c01b611f14565b610e3e679a8de1319e933b5c60c01b611f14565b858582600001516040517f817ce9f1000000000000000000000000000000000000000000000000000000008152600401610e7a93929190612295565b60405180910390fd5b610e9767eb450927d1dfc15b60c01b611f14565b610eab675d2fba354cd864b860c01b611f14565b3460026000836020015173ffffffffffffffffffffffffffffffffffffffff1673ffffffffffffffffffffffffffffffffffffffff16815260200190815260200160002054610efa91906122fb565b60026000836020015173ffffffffffffffffffffffffffffffffffffffff1673ffffffffffffffffffffffffffffffffffffffff16815260200190815260200160002081905550610f5567b2e96f3b2d5c205060c01b611f14565b600160008773ffffffffffffffffffffffffffffffffffffffff1673ffffffffffffffffffffffffffffffffffffffff16815260200190815260200160002060008681526020019081526020016000206000808201600090556001820160006101000a81549073ffffffffffffffffffffffffffffffffffffffff02191690555050610feb67937692c702cf938060c01b611f14565b610fff675e384b2987e73fec60c01b611f14565b8573ffffffffffffffffffffffffffffffffffffffff166342842e0e826020015133886040518463ffffffff1660e01b815260040161104093929190612351565b600060405180830381600087803b15801561105a57600080fd5b505af115801561106e573d6000803e3d6000fd5b5050505061108667373a33b2388ce77360c01b611f14565b61109a67e3a39b32cf11cbc260c01b611f14565b848673ffffffffffffffffffffffffffffffffffffffff163373ffffffffffffffffffffffffffffffffffffffff167f263223b1dd81e51054a4e6f791d45a4a1ddb4aadcd93a2dfd892615c3fdac18784600001516040516110fc9190611ff0565b60405180910390a461111867787d60a813c225da60c01b611f14565b6000600360006101000a81548160ff0219169083151502179055505050505060016000819055505050565b611157677b01fc645e0dd80760c01b611f14565b61116b67d944149741e93f0060c01b611f14565b61117f67122764bc6863590460c01b611f14565b6000600260003373ffffffffffffffffffffffffffffffffffffffff1673ffffffffffffffffffffffffffffffffffffffff1681526020019081526020016000205490506111d7674bea688111f7ff8f60c01b611f14565b6111eb67bea06c3d661cf21460c01b611f14565b6000811161124d5761120767313d875392d28afe60c01b611f14565b61121b673d70d2030dce594a60c01b611f14565b6040517f668a7c4200000000000000000000000000000000000000000000000000000000815260040160405180910390fd5b611261673bfc55f39e3d762660c01b611f14565b61127567edc5dbe0f2e45f7260c01b611f14565b6000600260003373ffffffffffffffffffffffffffffffffffffffff1673ffffffffffffffffffffffffffffffffffffffff168152602001908152602001600020819055506112ce67d5c01733b79d207560c01b611f14565b6112e267081077dc04e6b07e60c01b611f14565b60003373ffffffffffffffffffffffffffffffffffffffff1682604051611308906123b9565b60006040518083038185875af1925050503d8060008114611345576040519150601f19603f3d011682016040523d82523d6000602084013e61134a565b606091505b50509050611362672d836d6c788235dc60c01b611f14565b611376671ef570514fca396a60c01b611f14565b806113d55761138f6773b8ca73b4073f1860c01b611f14565b6113a367112bab80f334246e60c01b611f14565b6040517fc7be981f00000000000000000000000000000000000000000000000000000000815260040160405180910390fd5b6113e9678eaa4bf1bd4e415b60c01b611f14565b5050565b61140167da602fac298c63f460c01b611f14565b8181336114186767c57a433d0a7ef160c01b611f14565b61142c6727b6d734d9f887d160c01b611f14565b611440671f2f1f553765429260c01b611f14565b600083905061145967baa16bd8461aff3e60c01b611f14565b61146d6774d5149f9643567360c01b611f14565b60008173ffffffffffffffffffffffffffffffffffffffff16636352211e856040518263ffffffff1660e01b81526004016114a89190611ff0565b60206040518083038186803b1580156114c057600080fd5b505afa1580156114d4573d6000803e3d6000fd5b505050506040513d601f19601f820116820180604052508101906114f8919061217f565b905061150e6791d42c779d29fe5060c01b611f14565b61152267495a3f974c83d3e060c01b611f14565b8073ffffffffffffffffffffffffffffffffffffffff168373ffffffffffffffffffffffffffffffffffffffff16146115af5761156967b6684e6a5410218c60c01b611f14565b61157d67a062345c8d51969560c01b611f14565b6040517f94953b6000000000000000000000000000000000000000000000000000000000815260040160405180910390fd5b6115c367baebf3fa5ff61b4260c01b611f14565b6115d767f92f711c98203d8860c01b611f14565b6115eb675e2edfeec9c8e85a60c01b611f14565b6115ff6741f87f1aaab9201f60c01b611f14565b868661161567f9a20fe267d9788560c01b611f14565b6116296795fcef59197fb8d260c01b611f14565b61163d678342e2fc411456d360c01b611f14565b6000600160008473ffffffffffffffffffffffffffffffffffffffff1673ffffffffffffffffffffffffffffffffffffffff1681526020019081526020016000206000838152602001908152602001600020604051806040016040529081600082015481526020016001820160009054906101000a900473ffffffffffffffffffffffffffffffffffffffff1673ffffffffffffffffffffffffffffffffffffffff1673ffffffffffffffffffffffffffffffffffffffff168152505090506117106758ef11cf0a4d030860c01b611f14565b61172467e25831444596140160c01b611f14565b6000816000015111611797576117446748cf20f8035056d460c01b611f14565b61175867e93e6e2ed6b243f660c01b611f14565b82826040517f6d350f2200000000000000000000000000000000000000000000000000000000815260040161178e929190612141565b60405180910390fd5b6117ab673f227f6c6bcec2f260c01b611f14565b6117bf671bddb227ce60d3ea60c01b611f14565b6117d36726119b47a848380a60c01b611f14565b6117e76716845a8b96bae16960c01b611f14565b6117fb678fb370454c995ea260c01b611f14565b600160008b73ffffffffffffffffffffffffffffffffffffffff1673ffffffffffffffffffffffffffffffffffffffff16815260200190815260200160002060008a81526020019081526020016000206000808201600090556001820160006101000a81549073ffffffffffffffffffffffffffffffffffffffff0219169055505061189167c4f74d477ca67fa160c01b611f14565b6118a56765f0e554cfec985d60c01b611f14565b888a73ffffffffffffffffffffffffffffffffffffffff163373ffffffffffffffffffffffffffffffffffffffff167f9ba1a3cb55ce8d63d072a886f94d2a744f50cddf82128e897d0661f5ec62315860405160405180910390a450505050505050505050565b611914611f17565b61192867d2f86efe7972fbe960c01b611f14565b61193c67cf3d89ed6d98e30460c01b611f14565b61195067fe891597ddefc7aa60c01b611f14565b600160008473ffffffffffffffffffffffffffffffffffffffff1673ffffffffffffffffffffffffffffffffffffffff1681526020019081526020016000206000838152602001908152602001600020604051806040016040529081600082015481526020016001820160009054906101000a900473ffffffffffffffffffffffffffffffffffffffff1673ffffffffffffffffffffffffffffffffffffffff1673ffffffffffffffffffffffffffffffffffffffff1681525050905092915050565b611a2767bb67e7aeea3e884b60c01b611f14565b828233611a3e6767c57a433d0a7ef160c01b611f14565b611a526727b6d734d9f887d160c01b611f14565b611a66671f2f1f553765429260c01b611f14565b6000839050611a7f67baa16bd8461aff3e60c01b611f14565b611a936774d5149f9643567360c01b611f14565b60008173ffffffffffffffffffffffffffffffffffffffff16636352211e856040518263ffffffff1660e01b8152600401611ace9190611ff0565b60206040518083038186803b158015611ae657600080fd5b505afa158015611afa573d6000803e3d6000fd5b505050506040513d601f19601f82011682018060405250810190611b1e919061217f565b9050611b346791d42c779d29fe5060c01b611f14565b611b4867495a3f974c83d3e060c01b611f14565b8073ffffffffffffffffffffffffffffffffffffffff168373ffffffffffffffffffffffffffffffffffffffff1614611bd557611b8f67b6684e6a5410218c60c01b611f14565b611ba367a062345c8d51969560c01b611f14565b6040517f94953b6000000000000000000000000000000000000000000000000000000000815260040160405180910390fd5b611be967baebf3fa5ff61b4260c01b611f14565b611bfd67f92f711c98203d8860c01b611f14565b611c116747e4515380dbb39560c01b611f14565b611c256766531237ac818ebf60c01b611f14565b8787611c3b67f9a20fe267d9788560c01b611f14565b611c4f6795fcef59197fb8d260c01b611f14565b611c63678342e2fc411456d360c01b611f14565b6000600160008473ffffffffffffffffffffffffffffffffffffffff1673ffffffffffffffffffffffffffffffffffffffff1681526020019081526020016000206000838152602001908152602001600020604051806040016040529081600082015481526020016001820160009054906101000a900473ffffffffffffffffffffffffffffffffffffffff1673ffffffffffffffffffffffffffffffffffffffff1673ffffffffffffffffffffffffffffffffffffffff16815250509050611d366758ef11cf0a4d030860c01b611f14565b611d4a67e25831444596140160c01b611f14565b6000816000015111611dbd57611d6a6748cf20f8035056d460c01b611f14565b611d7e67e93e6e2ed6b243f660c01b611f14565b82826040517f6d350f22000000000000000000000000000000000000000000000000000000008152600401611db4929190612141565b60405180910390fd5b611dd1673f227f6c6bcec2f260c01b611f14565b611de5671bddb227ce60d3ea60c01b611f14565b611df9674a0310c5ee3ff14a60c01b611f14565b611e0d67a727cb5e2eb7674a60c01b611f14565b611e216732267bb18f68742a60c01b611f14565b88600160008d73ffffffffffffffffffffffffffffffffffffffff1673ffffffffffffffffffffffffffffffffffffffff16815260200190815260200160002060008c815260200190815260200160002060000181905550611e8d67b9ac6155ba9697cb60c01b611f14565b611ea16790e3f9f52e560fd560c01b611f14565b898b73ffffffffffffffffffffffffffffffffffffffff163373ffffffffffffffffffffffffffffffffffffffff167fd547e933094f12a9159076970143ebe73234e64480317844b0dcb36117116de48c604051611eff9190611ff0565b60405180910390a45050505050505050505050565b50565b604051806040016040528060008152602001600073ffffffffffffffffffffffffffffffffffffffff1681525090565b600080fd5b600073ffffffffffffffffffffffffffffffffffffffff82169050919050565b6000611f7782611f4c565b9050919050565b611f8781611f6c565b8114611f9257600080fd5b50565b600081359050611fa481611f7e565b92915050565b600060208284031215611fc057611fbf611f47565b5b6000611fce84828501611f95565b91505092915050565b6000819050919050565b611fea81611fd7565b82525050565b60006020820190506120056000830184611fe1565b92915050565b61201481611fd7565b811461201f57600080fd5b50565b6000813590506120318161200b565b92915050565b6000806000606084860312156120505761204f611f47565b5b600061205e86828701611f95565b935050602061206f86828701612022565b925050604061208086828701612022565b9150509250925092565b600080604083850312156120a1576120a0611f47565b5b60006120af85828601611f95565b92505060206120c085828601612022565b9150509250929050565b6120d381611fd7565b82525050565b6120e281611f6c565b82525050565b6040820160008201516120fe60008501826120ca565b50602082015161211160208501826120d9565b50505050565b600060408201905061212c60008301846120e8565b92915050565b61213b81611f6c565b82525050565b60006040820190506121566000830185612132565b6121636020830184611fe1565b9392505050565b60008151905061217981611f7e565b92915050565b60006020828403121561219557612194611f47565b5b60006121a38482850161216a565b91505092915050565b600082825260208201905092915050565b7f5265656e7472616e637947756172643a207265656e7472616e742063616c6c00600082015250565b60006121f3601f836121ac565b91506121fe826121bd565b602082019050919050565b60006020820190508181036000830152612222816121e6565b9050919050565b7f7265766572740000000000000000000000000000000000000000000000000000600082015250565b600061225f6006836121ac565b915061226a82612229565b602082019050919050565b6000602082019050818103600083015261228e81612252565b9050919050565b60006060820190506122aa6000830186612132565b6122b76020830185611fe1565b6122c46040830184611fe1565b949350505050565b7f4e487b7100000000000000000000000000000000000000000000000000000000600052601160045260246000fd5b600061230682611fd7565b915061231183611fd7565b9250827fffffffffffffffffffffffffffffffffffffffffffffffffffffffffffffffff03821115612346576123456122cc565b5b828201905092915050565b60006060820190506123666000830186612132565b6123736020830185612132565b6123806040830184611fe1565b949350505050565b600081905092915050565b50565b60006123a3600083612388565b91506123ae82612393565b600082019050919050565b60006123c482612396565b915081905091905056fea264697066735822122079e679820dc6ddb73eb75efaba23743b79d0e4aedf5423eb4df72857e6ee854664736f6c63430008090033",
  "linkReferences": {},
  "deployedLinkReferences": {}
}